{
  "_format": "hh-sol-artifact-1",
  "contractName": "CertificateRegistry",
  "sourceName": "contracts/CertificateRegistry.sol",
  "abi": [
    {
      "inputs": [],
      "stateMutability": "nonpayable",
      "type": "constructor"
    },
    {
      "anonymous": false,
      "inputs": [
        {
          "indexed": true,
          "internalType": "string",
          "name": "certId",
          "type": "string"
        },
        {
          "indexed": false,
          "internalType": "string",
          "name": "studentName",
          "type": "string"
        },
        {
          "indexed": false,
          "internalType": "string",
          "name": "ukmName",
          "type": "string"
        }
      ],
      "name": "CertificateIssued",
      "type": "event"
    },
    {
      "inputs": [],
      "name": "admin",
      "outputs": [
        {
          "internalType": "address",
          "name": "",
          "type": "address"
        }
      ],
      "stateMutability": "view",
      "type": "function"
    },
    {
      "inputs": [
        {
          "internalType": "string",
          "name": "",
          "type": "string"
        }
      ],
      "name": "certificates",
      "outputs": [
        {
          "internalType": "string",
          "name": "studentName",
          "type": "string"
        },
        {
          "internalType": "string",
          "name": "ukmName",
          "type": "string"
        },
        {
          "internalType": "string",
          "name": "role",
          "type": "string"
        },
        {
          "internalType": "uint256",
          "name": "issueDate",
          "type": "uint256"
        },
        {
          "internalType": "bool",
          "name": "isValid",
          "type": "bool"
        }
      ],
      "stateMutability": "view",
      "type": "function"
    },
    {
      "inputs": [
        {
          "internalType": "string",
          "name": "_certId",
          "type": "string"
        }
      ],
      "name": "getCertificate",
      "outputs": [
        {
          "components": [
            {
              "internalType": "string",
              "name": "studentName",
              "type": "string"
            },
            {
              "internalType": "string",
              "name": "ukmName",
              "type": "string"
            },
            {
              "internalType": "string",
              "name": "role",
              "type": "string"
            },
            {
              "internalType": "uint256",
              "name": "issueDate",
              "type": "uint256"
            },
            {
              "internalType": "bool",
              "name": "isValid",
              "type": "bool"
            }
          ],
          "internalType": "struct CertificateRegistry.Cert",
          "name": "",
          "type": "tuple"
        }
      ],
      "stateMutability": "view",
      "type": "function"
    },
    {
      "inputs": [
        {
          "internalType": "string",
          "name": "_certId",
          "type": "string"
        },
        {
          "internalType": "string",
          "name": "_studentName",
          "type": "string"
        },
        {
          "internalType": "string",
          "name": "_ukmName",
          "type": "string"
        },
        {
          "internalType": "string",
          "name": "_role",
          "type": "string"
        }
      ],
      "name": "issueCertificate",
      "outputs": [],
      "stateMutability": "nonpayable",
      "type": "function"
    }
  ],
  "bytecode": "0x608060405234801561001057600080fd5b5033600160006101000a81548173ffffffffffffffffffffffffffffffffffffffff021916908373ffffffffffffffffffffffffffffffffffffffff1602179055506111a4806100616000396000f3fe608060405234801561001057600080fd5b506004361061004c5760003560e01c8063818a2994146100515780638f2b91ea1461006d578063ed0f2e75146100a1578063f851a440146100d1575b600080fd5b61006b6004803603810190610066919061091d565b6100ef565b005b610087600480360381019061008291906109f4565b6102fa565b604051610098959493929190610af0565b60405180910390f35b6100bb60048036038101906100b691906109f4565b6104eb565b6040516100c89190610c44565b60405180910390f35b6100d961076c565b6040516100e69190610ca7565b60405180910390f35b600160009054906101000a900473ffffffffffffffffffffffffffffffffffffffff1673ffffffffffffffffffffffffffffffffffffffff163373ffffffffffffffffffffffffffffffffffffffff161461017f576040517f08c379a000000000000000000000000000000000000000000000000000000000815260040161017690610d0e565b60405180910390fd5b60008460405161018f9190610d6a565b908152602001604051809103902060040160009054906101000a900460ff16156101ee576040517f08c379a00000000000000000000000000000000000000000000000000000000081526004016101e590610dcd565b60405180910390fd5b6040518060a00160405280848152602001838152602001828152602001428152602001600115158152506000856040516102289190610d6a565b9081526020016040518091039020600082015181600001908161024b9190610ff9565b5060208201518160010190816102619190610ff9565b5060408201518160020190816102779190610ff9565b506060820151816003015560808201518160040160006101000a81548160ff021916908315150217905550905050836040516102b39190610d6a565b60405180910390207fc9aed1c64acf67836d70d23befa83b398ae1cc3d4dfae56bfe219d38128dd24384846040516102ec9291906110cb565b60405180910390a250505050565b60008180516020810182018051848252602083016020850120818352809550505050505060009150905080600001805461033390610e1c565b80601f016020809104026020016040519081016040528092919081815260200182805461035f90610e1c565b80156103ac5780601f10610381576101008083540402835291602001916103ac565b820191906000526020600020905b81548152906001019060200180831161038f57829003601f168201915b5050505050908060010180546103c190610e1c565b80601f01602080910402602001604051908101604052809291908181526020018280546103ed90610e1c565b801561043a5780601f1061040f5761010080835404028352916020019161043a565b820191906000526020600020905b81548152906001019060200180831161041d57829003601f168201915b50505050509080600201805461044f90610e1c565b80601f016020809104026020016040519081016040528092919081815260200182805461047b90610e1c565b80156104c85780601f1061049d576101008083540402835291602001916104c8565b820191906000526020600020905b8154815290600101906020018083116104ab57829003601f168201915b5050505050908060030154908060040160009054906101000a900460ff16905085565b6104f3610792565b6000826040516105039190610d6a565b908152602001604051809103902060040160009054906101000a900460ff16610561576040517f08c379a00000000000000000000000000000000000000000000000000000000081526004016105589061114e565b60405180910390fd5b6000826040516105719190610d6a565b90815260200160405180910390206040518060a001604052908160008201805461059a90610e1c565b80601f01602080910402602001604051908101604052809291908181526020018280546105c690610e1c565b80156106135780601f106105e857610100808354040283529160200191610613565b820191906000526020600020905b8154815290600101906020018083116105f657829003601f168201915b5050505050815260200160018201805461062c90610e1c565b80601f016020809104026020016040519081016040528092919081815260200182805461065890610e1c565b80156106a55780601f1061067a576101008083540402835291602001916106a5565b820191906000526020600020905b81548152906001019060200180831161068857829003601f168201915b505050505081526020016002820180546106be90610e1c565b80601f01602080910402602001604051908101604052809291908181526020018280546106ea90610e1c565b80156107375780601f1061070c57610100808354040283529160200191610737565b820191906000526020600020905b81548152906001019060200180831161071a57829003601f168201915b50505050508152602001600382015481526020016004820160009054906101000a900460ff1615151515815250509050919050565b600160009054906101000a900473ffffffffffffffffffffffffffffffffffffffff1681565b6040518060a00160405280606081526020016060815260200160608152602001600081526020016000151581525090565b6000604051905090565b600080fd5b600080fd5b600080fd5b600080fd5b6000601f19601f8301169050919050565b7f4e487b7100000000000000000000000000000000000000000000000000000000600052604160045260246000fd5b61082a826107e1565b810181811067ffffffffffffffff82111715610849576108486107f2565b5b80604052505050565b600061085c6107c3565b90506108688282610821565b919050565b600067ffffffffffffffff821115610888576108876107f2565b5b610891826107e1565b9050602081019050919050565b82818337600083830152505050565b60006108c06108bb8461086d565b610852565b9050828152602081018484840111156108dc576108db6107dc565b5b6108e784828561089e565b509392505050565b600082601f830112610904576109036107d7565b5b81356109148482602086016108ad565b91505092915050565b60008060008060808587031215610937576109366107cd565b5b600085013567ffffffffffffffff811115610955576109546107d2565b5b610961878288016108ef565b945050602085013567ffffffffffffffff811115610982576109816107d2565b5b61098e878288016108ef565b935050604085013567ffffffffffffffff8111156109af576109ae6107d2565b5b6109bb878288016108ef565b925050606085013567ffffffffffffffff8111156109dc576109db6107d2565b5b6109e8878288016108ef565b91505092959194509250565b600060208284031215610a0a57610a096107cd565b5b600082013567ffffffffffffffff811115610a2857610a276107d2565b5b610a34848285016108ef565b91505092915050565b600081519050919050565b600082825260208201905092915050565b60005b83811015610a77578082015181840152602081019050610a5c565b60008484015250505050565b6000610a8e82610a3d565b610a988185610a48565b9350610aa8818560208601610a59565b610ab1816107e1565b840191505092915050565b6000819050919050565b610acf81610abc565b82525050565b60008115159050919050565b610aea81610ad5565b82525050565b600060a0820190508181036000830152610b0a8188610a83565b90508181036020830152610b1e8187610a83565b90508181036040830152610b328186610a83565b9050610b416060830185610ac6565b610b4e6080830184610ae1565b9695505050505050565b600082825260208201905092915050565b6000610b7482610a3d565b610b7e8185610b58565b9350610b8e818560208601610a59565b610b97816107e1565b840191505092915050565b610bab81610abc565b82525050565b610bba81610ad5565b82525050565b600060a0830160008301518482036000860152610bdd8282610b69565b91505060208301518482036020860152610bf78282610b69565b91505060408301518482036040860152610c118282610b69565b9150506060830151610c266060860182610ba2565b506080830151610c396080860182610bb1565b508091505092915050565b60006020820190508181036000830152610c5e8184610bc0565b905092915050565b600073ffffffffffffffffffffffffffffffffffffffff82169050919050565b6000610c9182610c66565b9050919050565b610ca181610c86565b82525050565b6000602082019050610cbc6000830184610c98565b92915050565b7f48616e79612061646d696e2079616e6720626f6c656800000000000000000000600082015250565b6000610cf8601683610a48565b9150610d0382610cc2565b602082019050919050565b60006020820190508181036000830152610d2781610ceb565b9050919050565b600081905092915050565b6000610d4482610a3d565b610d4e8185610d2e565b9350610d5e818560208601610a59565b80840191505092915050565b6000610d768284610d39565b915081905092915050565b7f494420536572746966696b617420737564616820616461000000000000000000600082015250565b6000610db7601783610a48565b9150610dc282610d81565b602082019050919050565b60006020820190508181036000830152610de681610daa565b9050919050565b7f4e487b7100000000000000000000000000000000000000000000000000000000600052602260045260246000fd5b60006002820490506001821680610e3457607f821691505b602082108103610e4757610e46610ded565b5b50919050565b60008190508160005260206000209050919050565b60006020601f8301049050919050565b600082821b905092915050565b600060088302610eaf7fffffffffffffffffffffffffffffffffffffffffffffffffffffffffffffffff82610e72565b610eb98683610e72565b95508019841693508086168417925050509392505050565b6000819050919050565b6000610ef6610ef1610eec84610abc565b610ed1565b610abc565b9050919050565b6000819050919050565b610f1083610edb565b610f24610f1c82610efd565b848454610e7f565b825550505050565b600090565b610f39610f2c565b610f44818484610f07565b505050565b5b81811015610f6857610f5d600082610f31565b600181019050610f4a565b5050565b601f821115610fad57610f7e81610e4d565b610f8784610e62565b81016020851015610f96578190505b610faa610fa285610e62565b830182610f49565b50505b505050565b600082821c905092915050565b6000610fd060001984600802610fb2565b1980831691505092915050565b6000610fe98383610fbf565b9150826002028217905092915050565b61100282610a3d565b67ffffffffffffffff81111561101b5761101a6107f2565b5b6110258254610e1c565b611030828285610f6c565b600060209050601f8311600181146110635760008415611051578287015190505b61105b8582610fdd565b8655506110c3565b601f19841661107186610e4d565b60005b8281101561109957848901518255600182019150602085019450602081019050611074565b868310156110b657848901516110b2601f891682610fbf565b8355505b6001600288020188555050505b505050505050565b600060408201905081810360008301526110e58185610a83565b905081810360208301526110f98184610a83565b90509392505050565b7f536572746966696b617420746964616b20646974656d756b616e000000000000600082015250565b6000611138601a83610a48565b915061114382611102565b602082019050919050565b600060208201905081810360008301526111678161112b565b905091905056fea2646970667358221220616801b1856aaf607023e6677ebbc8d6f7545b95286b7bf9ef92174c3ea229a464736f6c63430008180033",
  "linkReferences": {},
  "deployedLinkReferences": {}
}